:100000000C94E8000C9405010C94E1040C94050197
:100010000C9405010C9405010C9405010C94050148
:100020000C9405010C94F8040C9405010C94050142
:100030000C9405010C9405010C9405010C94050128
:100040000C9405010C9405010C9405010C94050118
:100050000C94050108000000BE922449123EABAA90
:10006000AA2ABECDCCCC4C3E00000080BEABAAAAD2
:10007000AA3E00000000BF000000803F000000001A
:1000800000084178D3BB4387D1133D190E3CC3BD53
:100090004282AD2B3E68EC8276BED98FE1A93E4C00
:1000A00080EFFFBE01C4FF7F3F0000000000076338
:1000B0004236B79BD8A71A39685618AEBAAB558CDA
:1000C0001D3CB7CC5763BD6DEDFD753EF617723123
:1000D000BF000000803F00407A10F35A00A0724E2B
:1000E00018090010A5D4E80000E87648170000E4DD
:1000F0000B54020000CA9A3B000000E1F505000025
:1001000080969800000040420F000000A086010089
:100110000000102700000000E80300000000640059
:10012000000000000A0000000000010000000000C4
:100130002C76D888DC674F0823DFC1DFAE59E1B1E8
:10014000B796E5E3E453C63AE651997696E8E6C2F7
:100150008426EB898C9B62ED407C6FFCEFBC9C9FFE
:1001600040F2BAA56FA5F490055A2AF75C936B6C20
:10017000F9676DC11BFCE0E40D47FEF520E6B50014
:10018000D0ED902E0300943577050080841E080082
:1001900000204E0A000000C80C333333330F986E32
:1001A00012831141EF8D2114893BE65516CFFEE6EF
:1001B000DB18D1844B381BF77C1D901DA4BBE424B5
:1001C000203284725E228100C9F124ECA1E53D2732
:1001D00011241FBECFE5D8E0DEBFCDBF13E0A0E6FF
:1001E000B0E0ECE2FBE202C005900D92A435B1074D
:1001F000D9F723E0A4E5B3E001C01D92A539B20709
:10020000E1F70E945F0B0C9494150C940000672B8F
:1002100009F0DFC0009721F48BB38E7F8BBB08956C
:100220008130910521F48BB38D7F8BBB0895823093
:10023000910521F48BB38B7F8BBB0895833091059F
:1002400021F48BB3877F8BBB08958430910521F413
:100250008BB38F7E8BBB08958530910521F48BB3D2
:100260008F7D8BBB08958630910521F48BB38F7BF6
:100270008BBB08958730910521F48BB38F778BBBAF
:1002800008958A30910521F488B38E7F88BB089544
:100290008B30910521F488B38D7F88BB08958C3015
:1002A000910521F488B38B7F88BB08958D3091052B
:1002B00021F488B3877F88BB08958E30910521F49F
:1002C00088B38F7E88BB08958F30910521F488B361
:1002D0008F7D88BB08958031910521F488B38F7B91
:1002E00088BB08958131910521F488B38F7788BB4D
:1002F00008958431910521F485B38E7F85BB0895DF
:100300008531910521F485B38D7F85BB08958631B4
:10031000910521F485B38B7F85BB089587319105C5
:1003200021F485B3877F85BB08958831910521F439
:1003300085B38F7E85BB08958931910521F485B3FE
:100340008F7D85BB08958A31910521F485B38F7B1C
:1003500085BB08958B31910521F485B38F7785BBDB
:1003600008958E31910521F482B38E7F82BB08956A
:100370008F31910521F482B38D7F82BB0895803245
:10038000910521F482B38B7F82BB08958132910560
:1003900021F482B3877F82BB08958232910521F4D4
:1003A00082B38F7E82BB08958332910521F482B39C
:1003B0008F7D82BB08958432910521F482B38F7BB7
:1003C00082BB0895859709F0E1C082B38F7782BB25
:1003D0000895009721F48BB381608BBB0895813021
:1003E000910521F48BB382608BBB08958230910517
:1003F00021F48BB384608BBB08958330910521F485
:100400008BB388608BBB08958430910521F48BB346
:1004100080618BBB08958530910521F48BB3806298
:100420008BBB08958630910521F48BB380648BBB20
:1004300008958730910521F48BB380688BBB0895B4
:100440008A30910521F488B3816088BB08958B3090
:10045000910521F488B3826088BB08958C309105A2
:1004600021F488B3846088BB08958D30910521F410
:1004700088B3886088BB08958E30910521F488B3D5
:10048000806188BB08958F30910521F488B3806224
:1004900088BB08958031910521F488B3806488BBBE
:1004A00008958131910521F488B3806888BB08954F
:1004B0008431910521F485B3816085BB0895853130
:1004C000910521F485B3826085BB0895863191053D
:1004D00021F485B3846085BB08958731910521F4AB
:1004E00085B3886085BB08958831910521F485B373
:1004F000806185BB08958931910521F485B38062BF
:1005000085BB08958A31910521F485B3806485BB4C
:1005100008958B31910521F485B3806885BB0895DA
:100520008E31910521F482B3816082BB08958F31B1
:10053000910521F482B3826082BB089580329105D7
:1005400021F482B3846082BB08958132910521F445
:1005500082B3886082BB08958232910521F482B310
:10056000806182BB08958332910521F482B3806259
:1005700082BB08958432910521F482B3806482BBEA
:100580000895859719F482B3806882BB0895CF934C
:10059000C82F80FF07C061E070E082E290E00E9417
:1005A000070106C060E070E082E290E00E9407016F
:1005B000C1FF07C061E070E083E290E00E940701A4
:1005C00006C060E070E083E290E00E940701C2FF95
:1005D00007C061E070E084E290E00E94070106C07D
:1005E00060E070E084E290E00E940701C3FF07C072
:1005F00061E070E085E290E00E94070106C060E0E3
:1006000070E085E290E00E940701CF910895CF93BA
:10061000C82F60E070E08AE190E00E9407018C2F13
:100620000E94C70261E070E08BE190E00E94070148
:1006300089EF90E00197F1F700C0000060E070E002
:100640008BE190E00E94070189EF90E00197F1F7BC
:1006500000C00000CF91089580E00E94070381E070
:100660000E9407030895CF93813061F480E8860FDC
:10067000C62FCF7082958F700E9407038C2F0E9427
:1006800007030DC0823059F480EC860FC62FCF705F
:1006900082958F700E9407038C2F0E940703CF91D1
:1006A000089580E00E94C70287E893E10197F1F77F
:1006B00000C0000083E00E94070381EE94E00197F0
:1006C000F1F700C0000083E00E9407038DEB9AE081
:1006D0000197F1F700C0000083E00E94070382E069
:1006E0000E94070382E00E94070388E00E9407033C
:1006F00080E00E9407038CE00E94070380E00E94D4
:10070000070386E00E9407030895CF93DF93D82F55
:10071000DF70C82FC07F61E070E08AE190E00E9446
:1007200007018C2F82958F700E94C70261E070E0F4
:100730008BE190E00E94070189EF90E00197F1F7CB
:1007400000C0000060E070E08BE190E00E940701D3
:1007500089EF90E00197F1F700C000008D2F0E9413
:10076000C70261E070E08BE190E00E94070189EF31
:1007700090E00197F1F700C0000060E070E08BE1CD
:1007800090E00E94070189EF90E00197F1F700C027
:100790000000DF91CF9108950F931F93CF93DF93C4
:1007A0008C01C0E0D0E003C00E9485032196F801CF
:1007B000EC0FFD1F80818111F7CFDF91CF911F9149
:1007C0000F9108958770806487B986B1806486B977
:1007D000349BFECF86B1806186B989EF90E00197A6
:1007E000F1F700C0000084B195B10895CF92DF9277
:1007F000EF92FF92CF93DF93EC018FEF93E0BC0178
:100800006C1B7D0B072E000C880B990B0E942C0D86
:1008100020E030E040E251E40E94310E6B017C01A7
:10082000BE01DD0F880B990B0E942C0D9B01AC01C2
:10083000C701B6010E94820CDF91CF91FF90EF902B
:10084000DF90CF900895CF92DF92EF92FF92CF93F7
:10085000DF93C12CD12C7601C0E0D0E017C080E03E
:100860000E94E2030E94F6039B01AC01C701B6019E
:100870000E94110C6B017C012FE986E891E0215068
:1008800080409040E1F700C000002196C233D105BE
:1008900034F320E030E048E452E4C701B6010E949E
:1008A000820C2EEA37E44DE151E40E94820CDF9184
:1008B000CF91FF90EF90DF90CF900895CF92DF928D
:1008C000EF92FF92CF93DF93C12CD12C7601C0E041
:1008D000D0E014C080E00E94E2030E94F6039B0176
:1008E000AC01C701B6010E94110C6B017C0183EDC4
:1008F00090E30197F1F700C000002196C530D105C3
:100900004CF320E030E040EA50E4C701B6010E9419
:10091000820CDF91CF91FF90EF90DF90CF90089500
:10092000CF93DF934115510511F50E94E90DC8E5FC
:10093000D1E02C813D814E815F810E94100C288581
:1009400039854A855B850E94820C288139814A81DC
:100950005B810E94110C9B01AC0160E070E080E2C1
:1009600091E40E949E0E0E94F40CCB0127C04130FE
:10097000510511F50E94E90DCCE4D1E02C813D81B7
:100980004E815F810E94100C288539854A855B85E0
:100990000E94820C288139814A815B810E94110C5E
:1009A0009B01AC0160E070E080E291E40E949E0E49
:1009B0000E94F40CCB0102C080E090E0DF91CF9167
:1009C00008951F920F920FB60F9211248F9378946F
:1009D00080916203811104C081E08093620302C0B0
:1009E000109262038F910F900FBE0F901F90189579
:1009F0001F920F920FB60F9211248F939F937894AA
:100A000080916203813051F4809160039091610381
:100A10000196909361038093600304C01092610378
:100A2000109260039F918F910F900FBE0F901F90B7
:100A300018951BB888E18AB986E880BD10BC83E3AD
:100A400089B908955D9BFECF8CB908950F931F93CC
:100A5000CF93DF938C01C0E0D0E003C00E94220559
:100A60002196F801EC0FFD1F80818111F7CFDF91F6
:100A7000CF911F910F9108950E942C0384E691E07D
:100A80000E94CC032FEB8CE595E1215080409040F3
:100A9000E1F700C0000088E491E00E9426052FE9FC
:100AA00086E891E0215080409040E1F700C00000CE
:100AB0000E942C0385E791E00E94CC032FE986E891
:100AC00091E0215080409040E1F700C0000008957F
:100AD0002FE78AE196E0215080409040E1F700C086
:100AE000000018BA0E942C0385E891E00E94CC0314
:100AF00088E491E00E94260584E391E00E942605A7
:100B00002FEF88E09DE3215080409040E1F700C046
:100B100000000895CF93DF93EC012FE38DE093E085
:100B2000215080409040E1F700C000000E942C035B
:100B300083EA91E00E94CC0388E491E00E942605BC
:100B40002FE78AE196E0215080409040E1F700C015
:100B5000000089E291E00E9426052FE78AE196E0F5
:100B6000215080409040E1F700C000008FE091E00C
:100B70000E9426052FE78AE196E0215080409040B0
:100B8000E1F700C00000CE010E9426058AE10E9424
:100B900022058DE00E9422052FE784E89EE1215086
:100BA00080409040E1F700C000000E942C0383EBDE
:100BB00091E00E94CC032FEB87E299E02150804026
:100BC0009040E1F700C00000DF91CF9108954F926F
:100BD0005F926F927F92AF92BF92CF92DF92EF922D
:100BE000FF920F931F93CF93DF93CDB7DEB7CC5611
:100BF000D1090FB6F894DEBF0FBECDBF2B013C016B
:100C0000A9962CAF3DAF4EAF5FAFA997AD96ECAEB6
:100C1000FDAE0EAF1FAFAD970E942C0361E081E0E7
:100C20000E94330380EC91E00E94CC0361E082E0FB
:100C30000E9433038DEC91E00E94CC03C358DF4F38
:100C4000688179818A819B81CD57D0400E94F40CC4
:100C50007F936F93C601B5010E94F40C7F936F934D
:100C6000AD966CAD7DAD8EAD9FADAD970E94F40C91
:100C70007F936F93A9966CAD7DAD8EAD9FADA99717
:100C80000E94F40C7F936F93C301B2010E94F40C95
:100C90007F936F9387ED91E09F938F938E010F5F0A
:100CA0001F4F1F930F930E94681088E491E00E94E9
:100CB00026052FED83E994E0215080409040E1F734
:100CC00000C0000080EF90E00E9426052FED83E930
:100CD00094E0215080409040E1F700C000008DEC8E
:100CE00090E00E9426052FED83E994E0215080409A
:100CF0009040E1F700C000008FEB90E00E942605D5
:100D00002FED83E994E0215080409040E1F700C04E
:100D1000000081EB90E00E9426052FED83E994E02E
:100D2000215080409040E1F700C0000084EA90E04C
:100D30000E9426052FED83E994E0215080409040E9
:100D4000E1F700C000008FE890E00E9426052FED3B
:100D500083E994E0215080409040E1F700C000001A
:100D6000C8010E9426058DE00E9422052FED83E92F
:100D700094E0215080409040E1F700C000008EE7F1
:100D800090E00E9426052FED83E994E021508040F9
:100D90009040E1F700C0000081E790E00E94260546
:100DA0002FED83E994E0215080409040E1F700C0AE
:100DB000000084E690E00E9426052FED83E994E090
:100DC000215080409040E1F700C000000E942C03B9
:100DD00061E081E00E9433038BEB91E00E94CC0341
:100DE0002FEB86EC9DE2215080409040E1F700C05F
:100DF00000000FB6F894DEBF0FBECDBFC459DF4F61
:100E00000FB6F894DEBF0FBECDBFDF91CF911F911B
:100E10000F91FF90EF90DF90CF90BF90AF907F90B9
:100E20006F905F904F90089560916003709161039F
:100E3000CB01A0E0B0E0DC01992788272CB53DB5B7
:100E4000BC01CD01620F731F811D911D20E037E8A9
:100E500043E953E00E94D30F80916203813019F07F
:100E600080E090E00895C90108950F931F930E94B8
:100E70002C0361E081E00E94330380E592E00E9450
:100E8000CC0361E082E00E94330380E692E00E949E
:100E9000CC030E94230460936000709361008093F0
:100EA00062009093630003E613E022E046E00E94B4
:100EB00023100E942C0387EA91E60197F1F700C006
:100EC000000087E692E00E94CC030E942C0363E0BE
:100ED00082E00E9433038BE792E00E94CC03C801BA
:100EE0000E94CC038FE792E00E94CC039FE724E8A6
:100EF0008EE1915020408040E1F700C000000E9448
:100F00002C0387EA91E60197F1F700C0000061E049
:100F100081E00E94330385E892E00E94CC036DE0FB
:100F200081E00E9433038AE892E00E94CC0361E0F2
:100F300082E00E9433038EE892E00E94CC036DE0D1
:100F400082E00E9433038AE892E00E94CC031F9162
:100F50000F91089582E00E94E2032DE7AC01249FE7
:100F6000C001259F900D1124BC01990F880B990B8E
:100F70000E942C0D20E030E040E85BE30E94310E3F
:100F8000089586E088BB08954F925F926F927F929A
:100F9000AF92BF92CF92DF92EF92FF920F931F9387
:100FA000CF93DF93CDB7DEB7A4970FB6F894DEBF2B
:100FB0000FBECDBF0E94C1070E9468052FE332E437
:100FC0004FE0215030404040E1F700C000008CE18C
:100FD000E5E9F2E0DE01119601900D928A95E1F7C4
:100FE000CE0101960E948A05109162030E941407A7
:100FF00020915C0330915D0340915E0350915F034B
:101000002D8F3E8F4F8F58A3209158033091590355
:1010100040915A0350915B0329A33AA34BA35CA3CD
:1010200040905403509055036090560370905703BE
:10103000BC01990F880B990B0E942C0D5B016C0170
:10104000612F70E080E090E00E942A0D9F938F93C3
:101050007F936F93ED8CFE8C0F8D18A129A13AA17F
:101060004BA15CA1C301B2010E94E7050F900F9054
:101070000F900F90A4960FB6F894DEBF0FBECDBFB1
:10108000DF91CF911F910F91FF90EF90DF90CF9064
:10109000BF90AF907F906F905F904F900895CF92E8
:1010A000DF92EF92FF92CF93DF930E942C0361E0D7
:1010B00081E00E94330385E892E00E94CC036DE05A
:1010C00081E00E9433038AE892E00E94CC0361E051
:1010D00082E00E9433038EE892E00E94CC036DE030
:1010E00082E00E9433038AE892E00E94CC030E94CF
:1010F0005E04209160003091610040916200509147
:1011000063000E94820C40E050E00E949004EC01D9
:10111000BC01990F880B990B0E942C0D6B017C016F
:101120004AE064E773E0CE010E94431065E081E08D
:101130000E94330384E793E00E94CC0320E030E078
:10114000A901C701B6010E947D0C88234CF40F2E23
:10115000C12CDD24DA94FFE7EF2EF7E4FF2EF02D0B
:10116000C0925403D0925503E0925603F092570375
:101170000E945E0420916000309161004091620005
:10118000509163000E94820C41E050E00E94900464
:10119000EC014AE065E873E00E94431067E082E0FA
:1011A0000E94330385E893E00E94CC03BE01DD0F6B
:1011B000880B990B0E942C0D609358037093590370
:1011C00080935A0390935B032FED83E994E02150C1
:1011D00080409040E1F700C0000020E030E048E4AB
:1011E00052E4C701B6010E94DC0D1816BCF50E943E
:1011F0002C0361E081E00E94330381EB92E00E94C6
:10120000CC032FEB87E299E0215080409040E1F73A
:1012100000C000000E94C4070E942C0361E081E02E
:101220000E94330385E892E00E94CC036DE081E0E8
:101230000E9433038AE892E00E94CC0361E082E0DE
:101240000E9433038EE892E00E94CC036DE082E0BE
:101250000E9433038AE892E00E94CC032FE78AE1E0
:1012600096E0215080409040E1F700C0000065E02A
:1012700081E00E9433038EEC92E00E94CC0367E091
:1012800082E00E94330380ED92E00E94CC03DF9164
:10129000CF91FF90EF90DF90CF9008954F925F92A3
:1012A0006F927F92AF92BF92CF92DF92EF92FF92B6
:1012B0000F931F93CF93DF93CDB7DEB766970FB62B
:1012C000F894DEBF0FBECDBF0E94C1070E94680523
:1012D0002FE332E44FE0215030404040E1F700C0BE
:1012E00000008EE0E7EDF2E0DE01119601900D9234
:1012F0008A95E1F7CE0101960E948A05109162035A
:101300000E94140720915C0330915D0340915E03BD
:1013100050915F032F87388B498B5A8B209158034C
:101320003091590340915A0350915B032B8B3C8BB6
:101330004D8B5E8B40905403509055036090560344
:1013400070905703BC01990F880B990B0E942C0DCC
:101350005B016C01612F70E080E090E00E942A0D3B
:101360009F938F937F936F93EF84F88809891A89ED
:101370002B893C894D895E89C301B2010E94E70532
:101380000F900F900F900F9066960FB6F894DEBFF7
:101390000FBECDBFDF91CF911F910F91FF90EF90C6
:1013A000DF90CF90BF90AF907F906F905F904F9005
:1013B00008958F929F92AF92BF92EF92FF920F93F8
:1013C0001F93CF93DF93CDB7DEB72A970FB6F8946C
:1013D000DEBF0FBECDBF81E00E94E2037C01BC01F5
:1013E000990F880B990B0E942C0D8E010F5F1F4FD8
:1013F00021E043E00E9423100E942C0361E081E081
:101400000E94330385EE92E00E94CC03C8010E9443
:10141000CC038DEE92E00E94CC032FE986E891E0A8
:10142000215080409040E1F700C000000E94AA07D0
:101430004B015C010B5F1F4F21E043E00E94231032
:1014400080925C0390925D03A0925E03B0925F0372
:1014500061E082E00E94330381EF92E00E94CC03BE
:10146000C8010E94CC0388EF92E00E94CC032FEBCE
:1014700087E299E0215080409040E1F700C00000F1
:1014800024E6E216F104ACF40E942C0361E081E052
:101490000E9433038BEF92E00E94CC038FEB97E224
:1014A00029E0815090402040E1F700C000000E94F8
:1014B0004E092A960FB6F894DEBF0FBECDBFDF915E
:1014C000CF911F910F91FF90EF90BF90AF909F90A1
:1014D0008F9008954F925F926F927F92AF92BF92DA
:1014E000CF92DF92EF92FF920F931F93CF93DF93F0
:1014F000CDB7DEB768970FB6F894DEBF0FBECDBF8D
:101500000E94C1070E9468052FE332E44FE021509A
:1015100030404040E1F700C0000080E1EAE0F3E045
:10152000DE01119601900D928A95E1F7CE010196A8
:101530000E948A05109162030E94140720915C03A7
:1015400030915D0340915E0350915F03298B3A8B8C
:101550004B8B5C8B209158033091590340915A0377
:1015600050915B032D8B3E8B4F8B588F40905403D3
:10157000509055036090560370905703BC01990F2B
:10158000880B990B0E942C0D5B016C01612F70E0A0
:1015900080E090E00E942A0D9F938F937F936F933A
:1015A000E988FA880B891C892D893E894F89588DD5
:1015B000C301B2010E94E7050F900F900F900F90AA
:1015C00068960FB6F894DEBF0FBECDBFDF91CF9106
:1015D0001F910F91FF90EF90DF90CF90BF90AF9051
:1015E0007F906F905F904F900895CF93DF9383E04B
:1015F0000E94E203EC012FE38DE093E02150804054
:101600009040E1F700C0000080916203813099F5BD
:101610000E942C0361E081E00E9433038AE193E0A1
:101620000E94CC03C935D240A4F061E082E00E9460
:10163000330385E293E00E94CC038FE79AE126E032
:10164000815090402040E1F700C000000E946A0AEB
:101650002DC061E082E00E94330385E393E00E94A5
:10166000CC038FE79AE126E0815090402040E1F7DB
:1016700000C000001BC00E942C0361E081E00E94BA
:1016800033038FE393E00E94CC0361E082E00E9489
:10169000330385E393E00E94CC038FE79AE126E0D1
:1016A000815090402040E1F700C00000DF91CF91D1
:1016B00008951FBC81E08EBD84E089BF0895CF935B
:1016C000DF93CDB7DEB729970FB6F894DEBF0FBE14
:1016D000CDBF10928403109273038FEF84BB81BB44
:1016E0001ABA86E087BB80E487B987E886B918BA5A
:1016F0008CE085BF80E88BBF78940E94590B83E310
:1017000090E00E9419050E9451032FE73AE146E05C
:10171000215030404040E1F700C000000E943C05ED
:101720000E94350781E090E09A8389830E944F08E8
:1017300018BA0E94D90918BA0E94F50A18BA298164
:101740003A81ADECBCEC0E94F20F96958795969588
:1017500087959C01220F331F220F331F820F931F87
:1017600029813A812817390709F04AC0309162036C
:1017700039870E94140720915C0330915D034091EA
:101780005E0350915F0329833A834B835C832091EE
:1017900058033091590340915A0350915B032D83B4
:1017A0003E834F8358874090540350905503609078
:1017B000560370905703BC01990F880B990B0E9438
:1017C0002C0D5B016C013985632F70E080E090E0A7
:1017D0000E942A0D9F938F937F936F93E980FA80E5
:1017E0000B811C812D813E814F815885C301B2013F
:1017F0000E94E7050F900F900F900F901A821982A8
:1018000049815A814F5F5F4F5A8349835FE38DE07F
:1018100093E0515080409040E1F700C0000086CF37
:101820005058BB27AA270E94280C0C94A20D0E9496
:10183000940D38F00E949B0D20F039F49F3F19F46D
:1018400026F40C94910D0EF4E095E7FB0C948B0DAF
:10185000E92F0E94B30D58F3BA1762077307840784
:10186000950720F079F4A6F50C94D50D0EF4E095CB
:101870000B2EBA2FA02D0B01B90190010C01CA014A
:10188000A0011124FF27591B99F0593F50F4503EF5
:1018900068F11A16F040A22F232F342F4427585FE7
:1018A000F3CF469537952795A795F0405395C9F7FF
:1018B0007EF41F16BA0B620B730B840BBAF09150B7
:1018C000A1F0FF0FBB1F661F771F881FC2F70EC056
:1018D000BA0F621F731F841F48F487957795679529
:1018E000B795F7959E3F08F0B0CF9395880F08F015
:1018F0009927EE0F9795879508950E94670D08F434
:1019000081E008950E94960C0C94A20D0E949B0DFC
:1019100058F00E94940D40F029F45F3F29F00C9498
:101920008B0D51110C94D60D0C94910D0E94B30D9A
:1019300068F39923B1F3552391F3951B550BBB27FE
:10194000AA2762177307840738F09F5F5F4F220F43
:10195000331F441FAA1FA9F335D00E2E3AF0E0E83A
:1019600032D091505040E695001CCAF72BD0FE2F84
:1019700029D0660F771F881FBB1F26173707480718
:10198000AB07B0E809F0BB0B802DBF01FF279358D0
:101990005F4F3AF09E3F510578F00C948B0D0C94FC
:1019A000D60D5F3FE4F3983ED4F38695779567951F
:1019B000B795F7959F5FC9F7880F911D9695879505
:1019C00097F90895E1E0660F771F881FBB1F621724
:1019D00073078407BA0720F0621B730B840BBA0BE2
:1019E000EE1F88F7E09508950E94FB0C6894B111F2
:1019F0000C94D60D08950E94BB0D88F09F5798F067
:101A0000B92F9927B751B0F0E1F0660F771F881F03
:101A1000991F1AF0BA95C9F714C0B13091F00E941D
:101A2000D50DB1E008950C94D50D672F782F882738
:101A3000B85F39F0B93FCCF3869577956795B39544
:101A4000D9F73EF490958095709561957F4F8F4FB3
:101A50009F4F0895E89409C097FB3EF490958095B8
:101A6000709561957F4F8F4F9F4F9923A9F0F92F64
:101A700096E9BB279395F695879577956795B795E2
:101A8000F111F8CFFAF4BB0F11F460FF1BC06F5FC8
:101A90007F4F8F4F9F4F16C0882311F096E911C0DA
:101AA000772321F09EE8872F762F05C0662371F0FB
:101AB00096E8862F70E060E02AF09A95660F771F0F
:101AC000881FDAF7880F9695879597F90895990FEB
:101AD0000008550FAA0BE0E8FEEF16161706E807F8
:101AE000F907C0F012161306E407F50798F0621B19
:101AF000730B840B950B39F40A2661F0232B242BEE
:101B0000252B21F408950A2609F4A140A6958FEF0C
:101B1000811D811D089597F99F6780E870E060E05E
:101B200008959FEF80EC089500240A941616170676
:101B300018060906089500240A94121613061406BE
:101B400005060895092E0394000C11F4882352F021
:101B5000BB0F40F4BF2B11F460FF04C06F5F7F4FD9
:101B60008F4F9F4F089557FD9058440F551F59F0C0
:101B70005F3F71F04795880F97FB991F61F09F3F7A
:101B800079F087950895121613061406551FF2CFA3
:101B90004695F1DF08C0161617061806991FF1CFF3
:101BA00086957105610508940895E894BB2766271A
:101BB0007727CB0197F908950E94670D08F48FEFFE
:101BC000089516F00C94280F0C94910D68940C94C1
:101BD0008B0D0E94BB0DA8F39923C1F3AEF3DF93E5
:101BE000CF931F930F93FF92C92FDD2788232AF0ED
:101BF0002197660F771F881FDAF720E030E040E872
:101C00005FEB9FE3883920F0803E38F021968F7794
:101C10000E94110CE4E5F0E004C00E94110CE1E820
:101C2000F0E00E94360F8B01BE01EC01FB2E6F57D6
:101C300071097595771F880B990B0E942C0D28E16F
:101C400032E741E35FE30E94440EAF2D9801AE01FD
:101C5000FF900F911F91CF91DF910E94280C0C945F
:101C6000A20D0E94440E0C94A20D0E94940D38F017
:101C70000E949B0D20F0952311F00C948B0D0C9479
:101C8000910D11240C94D60D0E94B30D70F3959F05
:101C9000C1F3950F50E0551F629FF001729FBB2763
:101CA000F00DB11D639FAA27F00DB11DAA1F649FFF
:101CB0006627B00DA11D661F829F2227B00DA11DB2
:101CC000621F739FB00DA11D621F839FA00D611D38
:101CD000221F749F3327A00D611D231F849F600D59
:101CE000211D822F762F6A2F11249F5750409AF082
:101CF000F1F088234AF0EE0FFF1FBB1F661F771F0E
:101D0000881F91505040A9F79E3F510580F00C94D8
:101D10008B0D0C94D60D5F3FE4F3983ED4F386957B
:101D200077956795B795F795E7959F5FC1F7FE2B78
:101D3000880F911D9695879597F90895FA01EE0FF2
:101D4000FF1F309621053105A1F16115710561F480
:101D50008038BFE39B0749F168949038810561F0B2
:101D60008038BFEF9B0741F099234AF5FF3FE1051B
:101D70003105210519F1E8940894E795D901AA23C2
:101D800029F4AB2FBE2FF85FD0F310C0FF5F70F4C3
:101D9000A695E0F7F73950F019F0FF3A38F49F773D
:101DA0009F930DD00F9007FC9058089546F00C9427
:101DB000910D60E070E080E89FE308954FE79F7722
:101DC0005F934F933F932F930E94E90D2F913F9183
:101DD0004F915F910E94310E0C94F60E29F416F08B
:101DE0000C948B0D0C94D50D0C94910D0E94BB0D91
:101DF000A8F39638A0F707F80F92E8942BE33AEA95
:101E000048EB5FE70E94470E0F920F920F924DB77B
:101E10005EB70F920E949F0FEEEAF0E00E94360F2D
:101E20004F915F91EF91FF91E595EE1FFF1F49F0F4
:101E3000FE57E0684427EE0F441FFA95E1F74195FD
:101E4000550B0E94690F0F9007FE0C945D0F0895CB
:101E50009F3F31F0915020F4879577956795B7951E
:101E6000880F911D9695879597F90895DF93CF93E5
:101E70001F930F93FF92EF92DF927B018C01689486
:101E800006C0DA2EEF010E94440EFE01E894A591EF
:101E90002591359145915591A6F3EF010E94280CAB
:101EA000FE019701A801DA9469F7DF90EF90FF90A7
:101EB0000F911F91CF91DF9108959B01AC0160E0DC
:101EC00070E080E89FE30C94820C0C948B0D0C94D2
:101ED000280F0E94BB0DD8F39923C9F3940F511D0D
:101EE000A3F39150504094F059F0882332F0660FDC
:101EF000771F881F91505040C1F79E3F51052CF726
:101F0000880F911D9695879597F908955F3FACF0DE
:101F1000983E9CF0BB27869577956795B79508F412
:101F2000B1609395C1F7BB0F58F711F460FFE8CF8C
:101F30006F5F7F4F8F4F9F4FE3CF0C94D60DFA0109
:101F4000DC01AA0FBB1F9B01AC01BF5728F422275D
:101F500033274427507820C0B75190F4AB2F00248A
:101F6000469537952795011CA395D2F3002071F073
:101F7000220F331F441FB395DAF30ED00C94100CCC
:101F800061307105A0E88A07B94630F49B01AC01C5
:101F90006627772788279078309621F02083318331
:101FA000428353830895052E97FB1EF400940E94EC
:101FB000EA0F57FD07D00E94011007FC03D04EF432
:101FC0000C94EA0F50954095309521953F4F4F4F17
:101FD0005F4F089590958095709561957F4F8F4FD5
:101FE0009F4F0895A29FB001B39FC001A39F700DA2
:101FF000811D1124911DB29F700D811D1124911D11
:102000000895A1E21A2EAA1BBB1BFD010DC0AA1F39
:10201000BB1FEE1FFF1FA217B307E407F50720F051
:10202000A21BB30BE40BF50B661F771F881F991FCC
:102030001A9469F760957095809590959B01AC0115
:10204000BD01CF010895EF920F931F93CF93DF93BC
:10205000E80147FD02C034E001C034E1042E000C69
:10206000550B57FF03C0519541955109E32E022F9F
:10207000242FAE010E946B12CE01DF91CF911F91F0
:102080000F91EF900895BB274A3031F4992322F441
:10209000BDE2909581959F4F0C944F10BB27FB019B
:1020A0005527AA27880F991FAA1FA41710F0A41B51
:1020B00083955051B9F7A05DAA3308F0A95DA193AB
:1020C000009779F7B111B1931192CB010C94B3142D
:1020D000AEE0B0E0EEE6F0E10C946B150D891E89E0
:1020E00086E08C831A8309838FEF9FE79E838D831D
:1020F000AE01475E5F4F6F89788DCE0101960E94D9
:102100008A10EF81F885E00FF11F10822E96E4E02F
:102110000C948715ABE0B0E0E0E9F0E10C945D15BC
:102120006C017B018A01FC0117821682838181FF89
:10213000CCC1CE0101963C01F6019381F70193FDDC
:10214000859193FF81917F01882309F4BAC185327B
:1021500039F493FD859193FF81917F01853229F4B4
:10216000B60190E00E94C314E7CF912C212C312CB2
:10217000FFE1F315D8F08B3279F038F4803279F042
:102180008332A1F4232D20611DC08D3261F0803394
:1021900069F4232D216016C0832D8260382EE32D33
:1021A000E4603E2E2AC0F32DF8601DC037FC2DC020
:1021B00020ED280F2A3040F08E32B9F436FC81C170
:1021C000232D2064322E19C036FE06C08AE0989E68
:1021D000200D1124922E11C0EAE02E9E200D112414
:1021E000222EF32DF0623F2E08C08C3621F4832D71
:1021F0008068382E02C0883641F4F70193FD85913E
:1022000093FF81917F018111B3CF982F9F7D9554CA
:10221000933028F40C5F1F4F9FE399830DC08336E2
:1022200031F0833771F0833509F059C021C0F801CE
:10223000808189830E5F1F4F88248394912C5301E2
:1022400013C02801F2E04F0E511CF801A080B180AC
:1022500036FE03C0692D70E002C06FEF7FEFC5014D
:102260000E94A8144C018201F32DFF773F2E16C067
:10227000280122E0420E511CF801A080B18036FEF8
:1022800003C0692D70E002C06FEF7FEFC5010E94AF
:102290009D144C01F32DF0683F2E820133FC1BC0CE
:1022A000822D90E088169906B0F4B60180E290E0A5
:1022B0000E94C3142A94F4CFF50137FC859137FEB0
:1022C00081915F01B60190E00E94C31421102A940D
:1022D00021E0821A91088114910471F7E8C08436D4
:1022E00011F0893641F5F80137FE07C06081718130
:1022F000828193810C5F1F4F08C060817181072E1E
:10230000000C880B990B0E5F1F4FF32DFF763F2EAD
:1023100097FF09C090958095709561957F4F8F4F7D
:102320009F4FF0683F2E2AE030E0A3010E94FF1487
:10233000882E861845C0853731F4232D2F7EB22E86
:102340002AE030E025C0932D997FB92E8F36C1F059
:1023500018F4883579F0B5C0803719F0883721F046
:10236000B0C0E92FE061BE2EB4FE0DC0FB2DF460BD
:10237000BF2E09C034FE0AC0292F2660B22E06C027
:1023800028E030E005C020E130E002C020E132E08A
:10239000F801B7FE07C060817181828193810C5F73
:1023A0001F4F06C06081718180E090E00E5F1F4F7B
:1023B000A3010E94FF14882E8618FB2DFF773F2E65
:1023C00036FE0DC0232D2E7FA22E891458F434FE24
:1023D0000BC032FC09C0832D8E7EA82E05C0B82C00
:1023E000A32C03C0B82C01C0B92CA4FE0FC0FE0161
:1023F000E80DF11D8081803321F49A2D997EA92E5C
:1024000009C0A2FE06C0B394B39404C08A2D867896
:1024100009F0B394A3FC11C0A0FE06C0B21488F466
:10242000280C922C9B180EC0B21460F4B60180E206
:1024300090E00E94C314B394F7CFB21418F42B1891
:1024400002C0982C212CA4FE10C0B60180E390E0BD
:102450000E94C314A2FE17C0A1FC03C088E790E04D
:1024600002C088E590E0B6010CC08A2D867859F04C
:10247000A1FE02C08BE201C080E2A7FC8DE2B601A2
:1024800090E00E94C314891438F4B60180E390E010
:102490000E94C3149A94F7CF8A94F301E80DF11DBA
:1024A0008081B60190E00E94C3148110F5CF2220F4
:1024B00009F442CEB60180E290E00E94C3142A944F
:1024C000F6CFF6018681978102C08FEF9FEF2B96A2
:1024D000E2E10C947915A9E0B0E0E1E7F2E10C94B7
:1024E00063156A01122FB02E2BE3201720F0FF2472
:1024F000F394F00E02C02CE3F22E0F2D27E0AE0174
:102500004F5F5F4F0E94C513BC014981842F8970C2
:10251000813031F0E1FC06C0E0FE06C090E205C06B
:102520009DE203C09BE201C090E05E2D507143FF2D
:102530003CC0911102C083E001C084E0811718F40F
:10254000212F281B01C020E051110BC0F601822F62
:1025500030E2882319F031938150FBCFC20ED11C99
:1025600020E0992329F0D6019C93F60131966F0162
:10257000C6010396E2FE0AC03EE4D6013C9341E464
:1025800011964C93119712963C9306C03EE6F601C5
:10259000308341E641833283FC01322F40E2332312
:1025A00009F442C041933150FACF42FF44C0911127
:1025B00002C083E001C084E0811718F4212F281B9A
:1025C00001C020E051110BC0F601822F30E28823B8
:1025D00019F031938150FBCFC20ED11C20E099231A
:1025E00029F0D6019C93F60131966F01C60103963E
:1025F000E2FE0BC039E4D6013C933EE411963C93D5
:10260000119736E412963C9307C039E6F601308301
:102610003EE6318336E63283FC01322F40E233233B
:1026200019F041933150FBCFFC01E20FF11D1082F4
:102630008EEF9FEFA6C021E030E0911102C020E0B4
:1026400030E0161617061CF4FB01319602C0E1E0DB
:10265000F0E02E0F3F1FBB2021F0EB2DF0E0319674
:1026600002C0E0E0F0E02E0F3F1FE12FF0E02E1758
:102670003F071CF4121B212F01C020E08E2D887112
:1026800059F4F601822F30E2882319F031938150FA
:10269000FBCFC20ED11C20E0992329F0D6019C93D8
:1026A000F60131966F0151110BC0F601822F90E3B4
:1026B000882319F091938150FBCFC20ED11C20E0EA
:1026C0000F2D060F9A81342F307144FF03C09133D0
:1026D00009F40150101624F4093018F008E001C084
:1026E00001E0AB0177FF02C040E050E0FB01E41BDA
:1026F000F50BA1E0B0E0AC0FBD1FEA0FFB1F8EE2AF
:10270000A82E4B01801A91080B2D10E01195019510
:1027100011094F3FBFEF5B0721F4D601AC92119630
:102720006D01641775072CF08416950614F48181E9
:1027300001C080E3415051093196D60111967D01C7
:102740004017510724F0D6018C936701E2CF64173C
:10275000750739F4963320F4953319F4311101C01B
:1027600081E3F6018083F701822F90E2882319F03C
:1027700091938150FBCFF701E20FF11D108280E0B1
:1027800090E02996ECE00C947F15283008F027E0C3
:102790003327DA01990F311D87FD9160009661059D
:1027A000710539F432602E5F3D9330E32A95E1F7ED
:1027B00008959F3F30F080387105610509F03C5F56
:1027C0003C5F3D93913008F08068911DDF93CF937B
:1027D0001F930F93FF92EF92192F987F9695E92FF1
:1027E00096959695E90FFF27E05DFE4F99273327D1
:1027F000EE24FF24A701E70105900894079428F42C
:10280000360FE71EF81E491F511D660F771F881FE0
:10281000991F0694A1F70590079428F4E70EF81E77
:10282000491F561FC11D770F881F991F661F0694E9
:10283000A1F70590079428F4F80E491F561FC71FEB
:10284000D11D880F991F661F771F0694A1F7059069
:10285000079420F4490F561FC71FD81F990F661FF2
:10286000771F881F0694A9F784911095177041F07F
:10287000D695C79557954795F794E7941A95C1F75C
:10288000E6EDF0E06894159015913591659195917C
:1028900005907FE27395E118F10A430B560BC90BC3
:1028A000D009C0F7E10CF11E431F561FC91FD01DF0
:1028B0007EF4703311F48A95E6CFE894015030F03D
:1028C000080F0AF40027021708F4202F2395022F7F
:1028D0007A3328F079E37D932A95E9F710C07D9348
:1028E0002A9589F6069497956795379517951794C5
:1028F000E118F10A430B560BC90BD00998F0239548
:102900007E9173957A3308F070E37C932013B8F7C7
:102910007E9170617D9330F0839571E37D9370E3D8
:102920002A95E1F71124EF90FF900F911F91CF911D
:10293000DF91992787FD90950895FC0105906150DE
:1029400070400110D8F7809590958E0F9F1F0895C5
:10295000FC016150704001900110D8F7809590956E
:102960008E0F9F1F0895DC01FC01672F7191772363
:10297000E1F7329704C07C916D9370836291AE173A
:10298000BF07C8F308950F931F93CF93DF93FB0105
:10299000238121FD03C08FEF9FEF2CC022FF16C0C3
:1029A00046815781248135814217530744F4A08121
:1029B000B1819D012F5F3F4F318320838C9326810E
:1029C00037812F5F3F4F3783268314C08B01EC0183
:1029D000FB010084F185E02D0995892BE1F6D801F2
:1029E00016968D919C911797019617969C938E93AE
:1029F0001697CE01DF91CF911F910F910895FA01A3
:102A0000AA27283051F1203181F1E8946F936E7F2D
:102A10006E5F7F4F8F4F9F4FAF4FB1E03ED0B4E01E
:102A20003CD0670F781F891F9A1FA11D680F791F5F
:102A30008A1F911DA11D6A0F711D811D911DA11D70
:102A400020D009F468943F912AE0269F1124301980
:102A5000305D3193DEF6CF010895462F4770405D1B
:102A60004193B3E00FD0C9F7F6CF462F4F70405DCA
:102A70004A3318F0495D31FD4052419302D0A9F725
:102A8000EACFB4E0A6959795879577956795BA951F
:102A9000C9F700976105710508959B01AC010A2EE5
:102AA00006945795479537952795BA95C9F7620FBC
:102AB000731F841F951FA01D08952F923F924F9260
:102AC0005F926F927F928F929F92AF92BF92CF92BE
:102AD000DF92EF92FF920F931F93CF93DF93CDB7C7
:102AE000DEB7CA1BDB0B0FB6F894DEBF0FBECDBF3F
:102AF00009942A88398848885F846E847D848C8410
:102B00009B84AA84B984C884DF80EE80FD800C8118
:102B10001B81AA81B981CE0FD11D0FB6F894DEBFFB
:0C2B20000FBECDBFED010895F894FFCF6B
:102B2C000000204141542B485454505445524D0DF3
:102B3C000041542B48545450524541440D004154CB
:102B4C002B48545450414354494F4E3D300D004195
:102B5C00542B48545450504152413D224349442235
:102B6C002C310D0041542B48545450494E49540DAE
:102B7C000041542B53415042523D322C310D0041F7
:102B8C00542B53415042523D312C310D0041542BAA
:102B9C0053415042523D332C312241504E222C2273
:102BAC00526F62692D494E5445524E4554220D00C8
:102BBC0041542B53415042523D332C312C22436F04
:102BCC006E74797065222C2247505253220D0041AD
:102BDC00542B434D47533D222B383830313738393D
:102BEC00393931363637220D0041542B434D474687
:102BFC003D310D004154442B383830313738393998
:102C0C0039313636373B0D0041540D003333134008
:102C1C0014AE073FF628DCBE33331340CDCC4C3E0C
:102C2C006666E6BE496E697469616C697A696E673D
:102C3C002047534D0047534D20696E697469616C90
:102C4C00697A65640043616C6C696E670048616EFB
:102C5C0067696E672075700043616C6C20656E64EB
:102C6C0065640053656E64696E67206D657373618E
:102C7C006765004D6573736167652073656E7400DD
:102C8C0053656E64696E67206461746100746F20B3
:102C9C007365727665720041542B48545450504100
:102CAC0052413D2255524C222C226170692E74687F
:102CBC00696E67737065616B2E636F6D2F757064D1
:102CCC006174653F6170695F6B65793D4B524A3544
:102CDC0043374D414D52574853534B4F2666696508
:102CEC006C64313D2564266669656C64323D2564EF
:102CFC00266669656C64333D2564266669656C647B
:102D0C00343D2564266669656C64353D2564220076
:102D1C0043616C6962726174696E672067617300EC
:102D2C0073656E736F720043616C69627261746972
:102D3C006F6E20646F6E652E2E2E00526F3D004B11
:102D4C004F686D20004C50473A0050504D00534D89
:102D5C004F4B453A00437269746963616C206C6532
:102D6C0076656C2067617320646574656374656453
:102D7C0000437269746963616C20616D6F756E7468
:102D8C00206761732064657465637465640020203A
:102D9C00202020202020004669726520646574651F
:102DAC006374656400666C616D653A2000206E6D1D
:102DBC000074656D703A2000204300666C616D658F
:102DCC00206465746563746564006D6F74696F6EFF
:102DDC0020646574656374656400504952206163B6
:102DEC0074697665004D6F74696F6E204465746507
:102DFC0063746564004E6F204D6F74696F6E005084
:102E0C00495220696E6163746976650053656E641E
:042E1C00696E670074
:00000001FF
