:100000000C942A000C9447000C9406030C944700AF
:100010000C9447000C9447000C9447000C94470044
:100020000C9447000C9447000C9447000C94470034
:100030000C9447000C9447000C9447000C94470024
:100040000C9447000C9447000C9447000C94470014
:100050000C94470011241FBECFE5D8E0DEBFCDBF12
:1000600012E0A0E6B0E0E0ECFEE002C005900D92E8
:10007000A839B107D9F722E0A8E9B2E001C01D9282
:10008000AB3CB207E1F70E943F040C945E070C946E
:100090000000672B09F0DFC0009721F48BB38E7F3F
:1000A0008BBB08958130910521F48BB38D7F8BBB81
:1000B00008958230910521F48BB38B7F8BBB08951B
:1000C0008330910521F48BB3877F8BBB08958430F7
:1000D000910521F48BB38F7E8BBB089585309105FC
:1000E00021F48BB38F7D8BBB08958630910521F46D
:1000F0008BB38F7B8BBB08958730910521F48BB335
:100100008F778BBB08958A30910521F488B38E7F59
:1001100088BB08958B30910521F488B38D7F88BB0F
:1001200008958C30910521F488B38B7F88BB0895A6
:100130008D30910521F488B3877F88BB08958E3078
:10014000910521F488B38F7E88BB08958F30910587
:1001500021F488B38F7D88BB08958031910521F407
:1001600088B38F7B88BB08958131910521F488B3D2
:100170008F7788BB08958431910521F485B38E7FF4
:1001800085BB08958531910521F485B38D7F85BBAD
:1001900008958631910521F485B38B7F85BB089541
:1001A0008731910521F485B3877F85BB0895883118
:1001B000910521F485B38F7E85BB08958931910522
:1001C00021F485B38F7D85BB08958A31910521F493
:1001D00085B38F7B85BB08958B31910521F485B361
:1001E0008F7785BB08958E31910521F482B38E7F80
:1001F00082BB08958F31910521F482B38D7F82BB3C
:1002000008958032910521F482B38B7F82BB0895DB
:100210008132910521F482B3877F82BB08958232B7
:10022000910521F482B38F7E82BB089583329105BC
:1002300021F482B38F7D82BB08958432910521F42D
:1002400082B38F7B82BB0895859709F0E1C082B3AA
:100250008F7782BB0895009721F48BB381608BBBAD
:1002600008958130910521F48BB382608BBB089592
:100270008230910521F48BB384608BBB0895833069
:10028000910521F48BB388608BBB08958430910570
:1002900021F48BB380618BBB08958530910521F4E7
:1002A0008BB380628BBB08958630910521F48BB3AC
:1002B00080648BBB08958730910521F48BB38068EF
:1002C0008BBB08958A30910521F488B3816088BB87
:1002D00008958B30910521F488B3826088BB08951E
:1002E0008C30910521F488B3846088BB08958D30EB
:1002F000910521F488B3886088BB08958E309105FC
:1003000021F488B3806188BB08958F30910521F472
:1003100088B3806288BB08958031910521F488B349
:10032000806488BB08958131910521F488B3806889
:1003300088BB08958431910521F485B3816085BB24
:1003400008958531910521F485B3826085BB0895B8
:100350008631910521F485B3846085BB089587318A
:10036000910521F485B3886085BB08958831910596
:1003700021F485B3806185BB08958931910521F40D
:1003800085B3806285BB08958A31910521F485B3D8
:10039000806485BB08958B31910521F485B3806815
:1003A00085BB08958E31910521F482B3816082BBB3
:1003B00008958F31910521F482B3826082BB089544
:1003C0008032910521F482B3846082BB089581322A
:1003D000910521F482B3886082BB08958232910531
:1003E00021F482B3806182BB08958332910521F4A8
:1003F00082B3806282BB08958432910521F482B376
:10040000806482BB0895859719F482B3806882BBAB
:100410000895CF93C82F80FF07C061E070E082E2AB
:1004200090E00E94490006C060E070E082E290E047
:100430000E944900C1FF07C061E070E083E290E0E4
:100440000E94490006C060E070E083E290E00E94F4
:100450004900C2FF07C061E070E084E290E00E94C2
:10046000490006C060E070E084E290E00E9449002C
:10047000C3FF07C061E070E085E290E00E944900A0
:1004800006C060E070E085E290E00E944900CF91F4
:100490000895CF93C82F60E070E08AE190E00E9459
:1004A00049008C2F0E94090261E070E08BE190E02E
:1004B0000E94490089EF90E00197F1F700C0000029
:1004C00060E070E08BE190E00E94490089EF90E0ED
:1004D0000197F1F700C00000CF91089580E00E94DD
:1004E000490281E00E944902089580E00E940902C9
:1004F00087E893E10197F1F700C0000083E00E94D4
:10050000490281EE94E00197F1F700C0000083E01A
:100510000E9449028DEB9AE00197F1F700C00000BC
:1005200083E00E94490282E00E94490282E00E9428
:10053000490288E00E94490280E00E9449028CE062
:100540000E94490280E00E94490286E00E9449021E
:100550000895CF93DF93D82FDF70C82FC07F61E05D
:1005600070E08AE190E00E9449008C2F82958F70A4
:100570000E94090261E070E08BE190E00E94490076
:1005800089EF90E00197F1F700C0000060E070E0B3
:100590008BE190E00E94490089EF90E00197F1F72C
:1005A00000C000008D2F0E94090261E070E08BE125
:1005B00090E00E94490089EF90E00197F1F700C0B8
:1005C000000060E070E08BE190E00E94490089EF5C
:1005D00090E00197F1F700C00000DF91CF910895FE
:1005E0000F931F93CF93DF938C01C0E0D0E003C043
:1005F0000E94A9022196F801EC0FFD1F8081811154
:10060000F7CFDF91CF911F910F9108951F920F9215
:100610000FB60F9211248F9380919802811104C01C
:1006200081E08093980202C0109298028F910F90FF
:100630000FBE0F901F9018951BB888E18AB986E805
:1006400080BD10BC83E389B908955D9BFECF8CB952
:1006500008950F931F93CF93DF938C01C0E0D0E0F8
:1006600003C00E9425032196F801EC0FFD1F808135
:100670008111F7CFDF91CF911F910F9108950E94C3
:100680006E028FE091E00E94F0022FEB8CE595E185
:10069000215080409040E1F700C000008BE091E0E5
:1006A0000E9429032FE986E891E021508040904084
:1006B000E1F700C000000E946E0280E291E00E941B
:1006C000F0022FE986E891E0215080409040E1F768
:1006D00000C0000008950F931F93CF93DF93CDB711
:1006E000DEB7C456D1090FB6F894DEBF0FBECDBF3A
:1006F000182F092F0E946E028FE392E00E94F002F1
:100700000F931F9387E492E09F938F938E010F5F67
:100710001F4F1F930F930E9474048BE091E00E947F
:1007200029032FED83E994E0215080409040E1F7C8
:1007300000C000008CEE90E00E9429032FED83E9B9
:1007400094E0215080409040E1F700C0000089EC27
:1007500090E00E9429032FED83E994E0215080402E
:100760009040E1F700C000008BEB90E00E9429036D
:100770002FED83E994E0215080409040E1F700C0E4
:1007800000008DEA90E00E9429032FED83E994E0B8
:10079000215080409040E1F700C0000080EA90E0E6
:1007A0000E9429032FED83E994E02150804090407E
:1007B000E1F700C000008BE890E00E9429032FEDD4
:1007C00083E994E0215080409040E1F700C00000B0
:1007D000C8010E9429038DE00E9425032FED83E9C3
:1007E00094E0215080409040E1F700C000008AE78B
:1007F00090E00E9429032FED83E994E0215080408E
:100800009040E1F700C000008DE690E00E942903CF
:100810002FED83E994E0215080409040E1F700C043
:10082000000080E690E00E9429032FED83E994E028
:10083000215080409040E1F700C000000E946E020D
:1008400086E691E00E94F0022FE78AE196E02150CF
:1008500080409040E1F700C000000F900F900F9093
:100860000F900F900F90CC59DF4F0FB6F894DEBF6A
:100870000FBECDBFDF91CF911F910F9108951092C0
:10088000BA021092A9028FEF84BB81BB1ABA86E02C
:1008900087BB80E487B987E886B918BA80E88BBF40
:1008A0008CE085BF789483E390E00E941C030E9453
:1008B00075022FE78AE196E0215080409040E1F7F1
:1008C00000C000000E943F03C0E0D0E0CE010E94C3
:1008D0006B0321962FE784E89EE1215080409040F1
:1008E000E1F700C00000F2CFAEE0B0E0EAE7F4E0EC
:1008F0000C9435070D891E8986E08C831A83098341
:100900008FEF9FE79E838D83AE01475E5F4F6F89B8
:10091000788DCE0101960E949604EF81F885E00F54
:10092000F11F10822E96E4E00C945107ABE0B0E08A
:10093000ECE9F4E00C9427076C017B018A01FC01CF
:1009400017821682838181FFCCC1CE0101963C01C2
:10095000F6019381F70193FD859193FF81917F01CA
:10096000882309F4BAC1853239F493FD859193FF48
:1009700081917F01853229F4B60190E00E948D06B5
:10098000E7CF912C212C312CFFE1F315D8F08B32DD
:1009900079F038F4803279F08332A1F4232D20618C
:1009A0001DC08D3261F0803369F4232D216016C0A3
:1009B000832D8260382EE32DE4603E2E2AC0F32D75
:1009C000F8601DC037FC2DC020ED280F2A3040F004
:1009D0008E32B9F436FC81C1232D2064322E19C029
:1009E00036FE06C08AE0989E200D1124922E11C07A
:1009F000EAE02E9E200D1124222EF32DF0623F2ED0
:100A000008C08C3621F4832D8068382E02C08836C9
:100A100041F4F70193FD859193FF81917F0181114D
:100A2000B3CF982F9F7D9554933028F40C5F1F4FC0
:100A30009FE399830DC0833631F0833771F083359E
:100A400009F059C021C0F801808189830E5F1F4FD2
:100A500088248394912C530113C02801F2E04F0E97
:100A6000511CF801A080B18036FE03C0692D70E0F2
:100A700002C06FEF7FEFC5010E9482064C01820128
:100A8000F32DFF773F2E16C0280122E0420E511CA5
:100A9000F801A080B18036FE03C0692D70E002C06D
:100AA0006FEF7FEFC5010E9477064C01F32DF068D0
:100AB0003F2E820133FC1BC0822D90E088169906E0
:100AC000B0F4B60180E290E00E948D062A94F4CF43
:100AD000F50137FC859137FE81915F01B60190E009
:100AE0000E948D0621102A9421E0821A9108811417
:100AF000910471F7E8C0843611F0893641F5F801A8
:100B000037FE07C060817181828193810C5F1F4F26
:100B100008C060817181072E000C880B990B0E5F55
:100B20001F4FF32DFF763F2E97FF09C090958095BC
:100B3000709561957F4F8F4F9F4FF0683F2E2AE051
:100B400030E0A3010E94C906882E861845C085376B
:100B500031F4232D2F7EB22E2AE030E025C0932DD4
:100B6000997FB92E8F36C1F018F4883579F0B5C069
:100B7000803719F0883721F0B0C0E92FE061BE2E30
:100B8000B4FE0DC0FB2DF460BF2E09C034FE0AC0B8
:100B9000292F2660B22E06C028E030E005C020E1F3
:100BA00030E002C020E132E0F801B7FE07C060810A
:100BB0007181828193810C5F1F4F06C060817181BA
:100BC00080E090E00E5F1F4FA3010E94C906882EAF
:100BD0008618FB2DFF773F2E36FE0DC0232D2E7F6E
:100BE000A22E891458F434FE0BC032FC09C0832DA8
:100BF0008E7EA82E05C0B82CA32C03C0B82C01C033
:100C0000B92CA4FE0FC0FE01E80DF11D80818033D8
:100C100021F49A2D997EA92E09C0A2FE06C0B39494
:100C2000B39404C08A2D867809F0B394A3FC11C054
:100C3000A0FE06C0B21488F4280C922C9B180EC09B
:100C4000B21460F4B60180E290E00E948D06B39485
:100C5000F7CFB21418F42B1802C0982C212CA4FE44
:100C600010C0B60180E390E00E948D06A2FE17C07E
:100C7000A1FC03C088E790E002C088E590E0B601DF
:100C80000CC08A2D867859F0A1FE02C08BE201C00B
:100C900080E2A7FC8DE2B60190E00E948D068914E7
:100CA00038F4B60180E390E00E948D069A94F7CF65
:100CB0008A94F301E80DF11D8081B60190E00E9455
:100CC0008D068110F5CF222009F442CEB60180E2D4
:100CD00090E00E948D062A94F6CFF60186819781D6
:100CE00002C08FEF9FEF2B96E2E10C944307FC01CB
:100CF0000590615070400110D8F7809590958E0F47
:100D00009F1F0895FC016150704001900110D8F7B9
:100D1000809590958E0F9F1F08950F931F93CF93EB
:100D2000DF93FB01238121FD03C08FEF9FEF2CC0D8
:100D300022FF16C04681578124813581421753070F
:100D400044F4A081B1819D012F5F3F4F3183208307
:100D50008C93268137812F5F3F4F3783268314C0C2
:100D60008B01EC01FB010084F185E02D0995892BB5
:100D7000E1F6D80116968D919C91179701961796DA
:100D80009C938E931697CE01DF91CF911F910F9177
:100D90000895FA01AA27283051F1203181F1E89411
:100DA0006F936E7F6E5F7F4F8F4F9F4FAF4FB1E05E
:100DB0003ED0B4E03CD0670F781F891F9A1FA11D59
:100DC000680F791F8A1F911DA11D6A0F711D811D5A
:100DD000911DA11D20D009F468943F912AE0269F1F
:100DE00011243019305D3193DEF6CF010895462F7E
:100DF0004770405D4193B3E00FD0C9F7F6CF462F5F
:100E00004F70405D4A3318F0495D31FD40524193C7
:100E100002D0A9F7EACFB4E0A69597958795779584
:100E20006795BA95C9F700976105710508959B010B
:100E3000AC010A2E06945795479537952795BA9594
:100E4000C9F7620F731F841F951FA01D08952F926D
:100E50003F924F925F926F927F928F929F92AF924A
:100E6000BF92CF92DF92EF92FF920F931F93CF9397
:100E7000DF93CDB7DEB7CA1BDB0B0FB6F894DEBF2E
:100E80000FBECDBF09942A88398848885F846E8454
:100E90007D848C849B84AA84B984C884DF80EE809E
:100EA000FD800C811B81AA81B981CE0FD11D0FB6A7
:100EB000F894DEBF0FBECDBFED010895F894FFCFCB
:100EC00041542B485454505445524D0D0041542B1D
:100ED00048545450524541440D0041542B485454F9
:100EE00050414354494F4E3D300D0041542B48541E
:100EF0005450504152413D22434944222C310D006F
:100F000041542B48545450494E49540D0041542BE0
:100F100053415042523D322C310D0041542B53412C
:100F20005042523D312C310D0041542B534150421F
:100F3000523D332C312241504E222C22526F626995
:100F40002D494E5445524E4554220D0041542B53C9
:100F5000415042523D332C312C22436F6E747970D4
:100F600065222C2247505253220D0041540D004956
:100F70006E697469616C697A696E672047534D00C8
:100F800047534D20696E697469616C697A656400C4
:100F900043616C6C696E670048616E67696E6720BB
:100FA00075700043616C6C20656E64656400536508
:100FB0006E64696E67206D657373616765004D656A
:100FC00073736167652073656E740043616C696259
:100FD000726174696E67206761730073656E736F09
:100FE000720043616C6962726174696F6E20646F34
:100FF0006E652E2E2E00526F3D004B4F686D200007
:101000004C50473A0050504D00534D4F4B453A001D
:10101000437269746963616C206C6576656C2067E6
:1010200061732064657465637465640043726974F8
:101030006963616C20616D6F756E742067617320E8
:10104000646574656374656400202020202020207E
:101050002000666C616D653A2000206E6D00666C44
:10106000616D652064657465637465640050495200
:10107000206163746976650050495220696E61632E
:1010800074697665004D6F74696F6E206465746570
:1010900063746564004E6F204D6F74696F6E00530A
:1010A000656E64696E670041542B4854545050413A
:1010B00052413D2255524C222C226170692E746897
:1010C000696E67737065616B2E636F6D2F757064E9
:1010D0006174653F6170695F6B65793D4B524A355C
:1010E00043374D414D52574853534B4F2666696520
:0810F0006C64323D256422000E
:00000001FF
