:100000000C94E8000C9405010C94E1040C94050197
:100010000C9405010C9405010C9405010C94050148
:100020000C9405010C9405010C9405010C94050138
:100030000C9405010C9405010C9405010C94050128
:100040000C9405010C9405010C9405010C94050118
:100050000C94050108000000BE922449123EABAA90
:10006000AA2ABECDCCCC4C3E00000080BEABAAAAD2
:10007000AA3E00000000BF000000803F000000001A
:1000800000084178D3BB4387D1133D190E3CC3BD53
:100090004282AD2B3E68EC8276BED98FE1A93E4C00
:1000A00080EFFFBE01C4FF7F3F0000000000076338
:1000B0004236B79BD8A71A39685618AEBAAB558CDA
:1000C0001D3CB7CC5763BD6DEDFD753EF617723123
:1000D000BF000000803F00407A10F35A00A0724E2B
:1000E00018090010A5D4E80000E87648170000E4DD
:1000F0000B54020000CA9A3B000000E1F505000025
:1001000080969800000040420F000000A086010089
:100110000000102700000000E80300000000640059
:10012000000000000A0000000000010000000000C4
:100130002C76D888DC674F0823DFC1DFAE59E1B1E8
:10014000B796E5E3E453C63AE651997696E8E6C2F7
:100150008426EB898C9B62ED407C6FFCEFBC9C9FFE
:1001600040F2BAA56FA5F490055A2AF75C936B6C20
:10017000F9676DC11BFCE0E40D47FEF520E6B50014
:10018000D0ED902E0300943577050080841E080082
:1001900000204E0A000000C80C333333330F986E32
:1001A00012831141EF8D2114893BE65516CFFEE6EF
:1001B000DB18D1844B381BF77C1D901DA4BBE424B5
:1001C000203284725E228100C9F124ECA1E53D2732
:1001D00011241FBECFE5D8E0DEBFCDBF11E0A0E601
:1001E000B0E0E8EAFBE102C005900D92AA3EB1073B
:1001F000D9F722E0AAEEB1E001C01D92AD31B207FD
:10020000E1F70E942B070C94D20D0C940000672B91
:1002100009F0DFC0009721F48BB38E7F8BBB08956C
:100220008130910521F48BB38D7F8BBB0895823093
:10023000910521F48BB38B7F8BBB0895833091059F
:1002400021F48BB3877F8BBB08958430910521F413
:100250008BB38F7E8BBB08958530910521F48BB3D2
:100260008F7D8BBB08958630910521F48BB38F7BF6
:100270008BBB08958730910521F48BB38F778BBBAF
:1002800008958A30910521F488B38E7F88BB089544
:100290008B30910521F488B38D7F88BB08958C3015
:1002A000910521F488B38B7F88BB08958D3091052B
:1002B00021F488B3877F88BB08958E30910521F49F
:1002C00088B38F7E88BB08958F30910521F488B361
:1002D0008F7D88BB08958031910521F488B38F7B91
:1002E00088BB08958131910521F488B38F7788BB4D
:1002F00008958431910521F485B38E7F85BB0895DF
:100300008531910521F485B38D7F85BB08958631B4
:10031000910521F485B38B7F85BB089587319105C5
:1003200021F485B3877F85BB08958831910521F439
:1003300085B38F7E85BB08958931910521F485B3FE
:100340008F7D85BB08958A31910521F485B38F7B1C
:1003500085BB08958B31910521F485B38F7785BBDB
:1003600008958E31910521F482B38E7F82BB08956A
:100370008F31910521F482B38D7F82BB0895803245
:10038000910521F482B38B7F82BB08958132910560
:1003900021F482B3877F82BB08958232910521F4D4
:1003A00082B38F7E82BB08958332910521F482B39C
:1003B0008F7D82BB08958432910521F482B38F7BB7
:1003C00082BB0895859709F0E1C082B38F7782BB25
:1003D0000895009721F48BB381608BBB0895813021
:1003E000910521F48BB382608BBB08958230910517
:1003F00021F48BB384608BBB08958330910521F485
:100400008BB388608BBB08958430910521F48BB346
:1004100080618BBB08958530910521F48BB3806298
:100420008BBB08958630910521F48BB380648BBB20
:1004300008958730910521F48BB380688BBB0895B4
:100440008A30910521F488B3816088BB08958B3090
:10045000910521F488B3826088BB08958C309105A2
:1004600021F488B3846088BB08958D30910521F410
:1004700088B3886088BB08958E30910521F488B3D5
:10048000806188BB08958F30910521F488B3806224
:1004900088BB08958031910521F488B3806488BBBE
:1004A00008958131910521F488B3806888BB08954F
:1004B0008431910521F485B3816085BB0895853130
:1004C000910521F485B3826085BB0895863191053D
:1004D00021F485B3846085BB08958731910521F4AB
:1004E00085B3886085BB08958831910521F485B373
:1004F000806185BB08958931910521F485B38062BF
:1005000085BB08958A31910521F485B3806485BB4C
:1005100008958B31910521F485B3806885BB0895DA
:100520008E31910521F482B3816082BB08958F31B1
:10053000910521F482B3826082BB089580329105D7
:1005400021F482B3846082BB08958132910521F445
:1005500082B3886082BB08958232910521F482B310
:10056000806182BB08958332910521F482B3806259
:1005700082BB08958432910521F482B3806482BBEA
:100580000895859719F482B3806882BB0895CF934C
:10059000C82F80FF07C061E070E082E290E00E9417
:1005A000070106C060E070E082E290E00E9407016F
:1005B000C1FF07C061E070E083E290E00E940701A4
:1005C00006C060E070E083E290E00E940701C2FF95
:1005D00007C061E070E084E290E00E94070106C07D
:1005E00060E070E084E290E00E940701C3FF07C072
:1005F00061E070E085E290E00E94070106C060E0E3
:1006000070E085E290E00E940701CF910895CF93BA
:10061000C82F60E070E08AE190E00E9407018C2F13
:100620000E94C70261E070E08BE190E00E94070148
:1006300089EF90E00197F1F700C0000060E070E002
:100640008BE190E00E94070189EF90E00197F1F7BC
:1006500000C00000CF91089580E00E94070381E070
:100660000E9407030895CF93813061F480E8860FDC
:10067000C62FCF7082958F700E9407038C2F0E9427
:1006800007030DC0823059F480EC860FC62FCF705F
:1006900082958F700E9407038C2F0E940703CF91D1
:1006A000089580E00E94C70287E893E10197F1F77F
:1006B00000C0000083E00E94070381EE94E00197F0
:1006C000F1F700C0000083E00E9407038DEB9AE081
:1006D0000197F1F700C0000083E00E94070382E069
:1006E0000E94070382E00E94070388E00E9407033C
:1006F00080E00E9407038CE00E94070380E00E94D4
:10070000070386E00E9407030895CF93DF93D82F55
:10071000DF70C82FC07F61E070E08AE190E00E9446
:1007200007018C2F82958F700E94C70261E070E0F4
:100730008BE190E00E94070189EF90E00197F1F7CB
:1007400000C0000060E070E08BE190E00E940701D3
:1007500089EF90E00197F1F700C000008D2F0E9413
:10076000C70261E070E08BE190E00E94070189EF31
:1007700090E00197F1F700C0000060E070E08BE1CD
:1007800090E00E94070189EF90E00197F1F700C027
:100790000000DF91CF9108950F931F93CF93DF93C4
:1007A0008C01C0E0D0E003C00E9485032196F801CF
:1007B000EC0FFD1F80818111F7CFDF91CF911F9149
:1007C0000F9108958770806487B986B1806486B977
:1007D000349BFECF86B1806186B989EF90E00197A6
:1007E000F1F700C0000084B195B10895CF92DF9277
:1007F000EF92FF92CF93DF93EC018FEF93E0BC0178
:100800006C1B7D0B072E000C880B990B0E946D084A
:1008100020E030E040E251E40E944E096B017C018F
:10082000BE01DD0F880B990B0E946D089B01AC0186
:10083000C701B6010E94C307DF91CF91FF90EF90EF
:10084000DF90CF900895CF92DF92EF92FF92CF93F7
:10085000DF93C12CD12C7601C0E0D0E017C080E03E
:100860000E94E2030E94F6039B01AC01C701B6019E
:100870000E9457076B017C012FE986E891E0215027
:1008800080409040E1F700C000002196C233D105BE
:1008900034F320E030E048E452E4C701B6010E949E
:1008A000C3072EEA37E44DE151E40E94C307DF910C
:1008B000CF91FF90EF90DF90CF900895CF92DF928D
:1008C000EF92FF92CF93DF93C12CD12C7601C0E041
:1008D000D0E014C080E00E94E2030E94F6039B0176
:1008E000AC01C701B6010E9457076B017C0183ED83
:1008F00090E30197F1F700C000002196C530D105C3
:100900004CF320E030E040EA50E4C701B6010E9419
:10091000C307DF91CF91FF90EF90DF90CF900895C4
:10092000CF93DF934115510511F50E940609CDEAD9
:10093000D0E02C813D814E815F810E945607288541
:1009400039854A855B850E94C307288139814A81A0
:100950005B810E9457079B01AC0160E070E080E280
:1009600091E40E94BB090E943508CB0127C04130A9
:10097000510511F50E940609C1EAD0E02C813D81A4
:100980004E815F810E945607288539854A855B859F
:100990000E94C307288139814A815B810E945707E1
:1009A0009B01AC0160E070E080E291E40E94BB0931
:1009B0000E943508CB0102C080E090E0DF91CF912A
:1009C00008951F920F920FB60F9211248F9380916A
:1009D000EA01811104C081E08093EA0102C0109213
:1009E000EA018F910F900FBE0F901F9018951BB8C2
:1009F00088E18AB986E880BD10BC83E389B908958F
:100A00005D9BFECF8CB908950F931F93CF93DF9317
:100A10008C01C0E0D0E003C00E9400052196F801DF
:100A2000EC0FFD1F80818111F7CFDF91CF911F91D6
:100A30000F9108950E942C0389EB90E00E94CC0353
:100A40002FEB8CE595E1215080409040E1F700C00C
:100A500000008DE990E00E9404052FE986E891E00E
:100A6000215080409040E1F700C000000E942C031C
:100A70008AEC90E00E94CC032FE986E891E02150B7
:100A800080409040E1F700C0000008950E942C03D0
:100A90008AED90E00E94CC038DE990E00E9404056D
:100AA00089E890E00E9404052FEF88E09DE3215043
:100AB00080409040E1F700C000000895CF93DF939D
:100AC000EC012FE38DE093E0215080409040E1F76E
:100AD00000C000000E942C0388EF90E00E94CC032D
:100AE0008DE990E00E9404052FE78AE196E021500D
:100AF00080409040E1F700C000008EE790E00E9447
:100B000004052FE78AE196E0215080409040E1F70C
:100B100000C0000084E690E00E9404052FE78AE10F
:100B200096E0215080409040E1F700C00000CE01E7
:100B30000E9404058AE10E9400058DE00E940005E4
:100B40002FE784E89EE1215080409040E1F700C00B
:100B500000000E942C0388E091E00E94CC032FEB60
:100B600087E299E0215080409040E1F700C000000A
:100B7000DF91CF9108950F931F930E942C0361E0A2
:100B800081E00E94330385E191E00E94CC0361E0A3
:100B900082E00E94330385E291E00E94CC030E9430
:100BA00023046093600070936100809362009093CF
:100BB00063000BEE11E022E046E00E94140B0E945D
:100BC0002C0387EA91E60197F1F700C000008CE260
:100BD00091E00E94CC030E942C0363E082E00E941B
:100BE000330380E491E00E94CC03C8010E94CC034F
:100BF00084E491E00E94CC039FE724E88EE19150C9
:100C000020408040E1F700C000000E942C0387EAEA
:100C100091E60197F1F700C0000061E081E00E94D9
:100C200033038AE491E00E94CC036DE081E00E94EE
:100C300033038FE491E00E94CC0361E082E00E94E4
:100C4000330383E591E00E94CC036DE082E00E94D3
:100C500033038FE491E00E94CC031F910F9108951C
:100C600086E088BB0895CF93DF93CDB7DEB76C974E
:100C70000FB6F894DEBF0FBECDBF0E9430060E94B3
:100C800046052FE382E49FE0215080409040E1F749
:100C900000C000008CE1EAE5F1E0DE011196019070
:100CA0000D928A95E1F7CE0101960E945E056C9641
:100CB0000FB6F894DEBF0FBECDBFDF91CF91089580
:100CC000CF92DF92EF92FF92CF93DF9361E081E0CA
:100CD0000E9433038AE491E00E94CC036DE081E03E
:100CE0000E9433038FE491E00E94CC0361E082E034
:100CF0000E94330383E591E00E94CC036DE082E023
:100D00000E9433038FE491E00E94CC030E945E04B2
:100D10002091600030916100409162005091630029
:100D20000E94C30740E050E00E949004EC01BC0127
:100D3000990F880B990B0E946D086B017C014AE0AA
:100D40006CEF71E0CE010E94340B65E081E00E94FF
:100D500033038CEF91E00E94CC030E945E0420914B
:100D600060003091610040916200509163000E94E8
:100D7000C30741E050E00E9490044AE06DE072E059
:100D80000E94340B67E082E00E9433038DE092E022
:100D90000E94CC0320E030E048E452E4C701B601F1
:100DA0000E94F9081816BCF50E942C0361E081E04E
:100DB0000E94330386E791E00E94CC032FEB87E289
:100DC00099E0215080409040E1F700C000000E946F
:100DD00033060E942C0361E081E00E9433038AE421
:100DE00091E00E94CC036DE081E00E9433038FE428
:100DF00091E00E94CC0361E082E00E94330383E52E
:100E000091E00E94CC036DE082E00E9433038FE406
:100E100091E00E94CC032FE78AE196E021508040C8
:100E20009040E1F700C0000065E081E00E943303DC
:100E300083E991E00E94CC0367E082E00E943303E3
:100E400085E991E00E94CC03DF91CF91FF90EF9074
:100E5000DF90CF90089510920C021092FB018FEF5B
:100E600084BB81BB1ABA86E087BB80E487B987E878
:100E700086B918BA80E88BBF8CE085BF789483E38D
:100E800090E00E94F7040E9451032FE78AE196E068
:100E9000215080409040E1F700C000000E941A05F8
:100EA0000E94BB050E94600618BAFCCF5058BB27B1
:100EB000AA270E946E070C94BF080E94B10838F060
:100EC0000E94B80820F039F49F3F19F426F40C94DE
:100ED000AE080EF4E095E7FB0C94A808E92F0E94F9
:100EE000D00858F3BA17620773078407950720F0F4
:100EF00079F4A6F50C94F2080EF4E0950B2EBA2FB7
:100F0000A02D0B01B90190010C01CA01A00111240F
:100F1000FF27591B99F0593F50F4503E68F11A16BB
:100F2000F040A22F232F342F4427585FF3CF46954C
:100F300037952795A795F0405395C9F77EF41F166E
:100F4000BA0B620B730B840BBAF09150A1F0FF0F38
:100F5000BB1F661F771F881FC2F70EC0BA0F621F24
:100F6000731F841F48F4879577956795B795F79514
:100F70009E3F08F0B0CF9395880F08F09927EE0FA9
:100F80009795879508950E94D7070C94BF080E94F3
:100F9000B80858F00E94B10840F029F45F3F29F0EA
:100FA0000C94A80851110C94F3080C94AE080E94FC
:100FB000D00868F39923B1F3552391F3951B550B92
:100FC000BB27AA2762177307840738F09F5F5F4F1C
:100FD000220F331F441FAA1FA9F335D00E2E3AF05B
:100FE000E0E832D091505040E695001CCAF72BD073
:100FF000FE2F29D0660F771F881FBB1F26173707C4
:101000004807AB07B0E809F0BB0B802DBF01FF27F5
:1010100093585F4F3AF09E3F510578F00C94A80822
:101020000C94F3085F3FE4F3983ED4F386957795EC
:101030006795B795F7959F5FC9F7880F911D9695AE
:10104000879597F90895E1E0660F771F881FBB1F0A
:10105000621773078407BA0720F0621B730B840BB7
:10106000BA0BEE1F88F7E09508950E943C0868943B
:10107000B1110C94F30808950E94D80888F09F5786
:1010800098F0B92F9927B751B0F0E1F0660F771FAC
:10109000881F991F1AF0BA95C9F714C0B13091F0A2
:1010A0000E94F208B1E008950C94F208672F782F9F
:1010B0008827B85F39F0B93FCCF386957795679567
:1010C000B395D9F73EF490958095709561957F4FD3
:1010D0008F4F9F4F0895E89409C097FB3EF4909579
:1010E0008095709561957F4F8F4F9F4F9923A9F001
:1010F000F92F96E9BB279395F69587957795679590
:10110000B795F111F8CFFAF4BB0F11F460FF1BC0D3
:101110006F5F7F4F8F4F9F4F16C0882311F096E966
:1011200011C0772321F09EE8872F762F05C0662314
:1011300071F096E8862F70E060E02AF09A95660FCD
:10114000771F881FDAF7880F9695879597F9089586
:1011500097F99F6780E870E060E008959FEF80EC6A
:10116000089500240A94161617061806090608950D
:1011700000240A9412161306140605060895092E73
:101180000394000C11F4882352F0BB0F40F4BF2BE2
:1011900011F460FF04C06F5F7F4F8F4F9F4F089522
:1011A00057FD9058440F551F59F05F3F71F0479518
:1011B000880F97FB991F61F09F3F79F087950895FD
:1011C000121613061406551FF2CF4695F1DF08C01C
:1011D000161617061806991FF1CF86957105610539
:1011E00008940895E894BB2766277727CB0197F9E1
:1011F00008950E94450A08F48FEF089516F00C94A4
:10120000690A0C94AE0868940C94A8080E94D80847
:10121000A8F39923C1F3AEF3DF93CF931F930F93FA
:10122000FF92C92FDD2788232AF02197660F771FA9
:10123000881FDAF720E030E040E85FEB9FE3883971
:1012400020F0803E38F021968F770E945707E4E522
:10125000F0E004C00E945707E1E8F0E00E94770A3E
:101260008B01BE01EC01FB2E6F5771097595771F3D
:10127000880B990B0E946D0828E132E741E35FE398
:101280000E946109AF2D9801AE01FF900F911F914F
:10129000CF91DF910E946E070C94BF080E946109F4
:1012A0000C94BF080E94B10838F00E94B80820F0E2
:1012B000952311F00C94A8080C94AE0811240C94FA
:1012C000F3080E94D00870F3959FC1F3950F50E08A
:1012D000551F629FF001729FBB27F00DB11D639FE8
:1012E000AA27F00DB11DAA1F649F6627B00DA11D8E
:1012F000661F829F2227B00DA11D621F739FB00D34
:10130000A11D621F839FA00D611D221F749F3327A3
:10131000A00D611D231F849F600D211D822F762F3C
:101320006A2F11249F5750409AF0F1F088234AF019
:10133000EE0FFF1FBB1F661F771F881F9150504085
:10134000A9F79E3F510580F00C94A8080C94F3086F
:101350005F3FE4F3983ED4F3869577956795B7950C
:10136000F795E7959F5FC1F7FE2B880F911D969526
:10137000879597F90895FA01EE0FFF1F3096210522
:101380003105A1F16115710561F48038BFE39B0758
:1013900049F168949038810561F08038BFEF9B0770
:1013A00041F099234AF5FF3FE1053105210519F187
:1013B000E8940894E795D901AA2329F4AB2FBE2F0E
:1013C000F85FD0F310C0FF5F70F4A695E0F7F7392F
:1013D00050F019F0FF3A38F49F779F930DD00F909B
:1013E00007FC9058089546F00C94AE0860E070E059
:1013F00080E89FE308954FE79F775F934F933F9374
:101400002F930E9406092F913F914F915F910E9467
:101410004E090C94130A29F416F00C94A8080C94A5
:10142000F2080C94AE080E94D808A8F39638A0F7EA
:1014300007F80F92E8942BE33AEA48EB5FE70E9443
:1014400064090F920F920F924DB75EB70F920E94F0
:10145000E00AEEEAF0E00E94770A4F915F91EF9187
:10146000FF91E595EE1FFF1F49F0FE57E068442706
:10147000EE0F441FFA95E1F74195550B0E94AA0A19
:101480000F9007FE0C949E0A0895990F0008550FBF
:10149000AA0BE0E8FEEF16161706E807F907C0F0FA
:1014A00012161306E407F50798F0621B730B840B02
:1014B000950B39F40A2661F0232B242B252B21F4DC
:1014C00008950A2609F4A140A6958FEF811D811D7C
:1014D00008959F3F31F0915020F487957795679557
:1014E000B795880F911D9695879597F90895DF9385
:1014F000CF931F930F93FF92EF92DF927B018C01AA
:10150000689406C0DA2EEF010E946109FE01E8949A
:10151000A5912591359145915591A6F3EF010E9432
:101520006E07FE019701A801DA9469F7DF90EF904A
:10153000FF900F911F91CF91DF9108959B01AC0116
:1015400060E070E080E89FE30C94C3070C94A80867
:101550000C94690A0E94D808D8F39923C9F3940F10
:10156000511DA3F39150504094F059F0882332F06C
:10157000660F771F881F91505040C1F79E3F51055D
:101580002CF7880F911D9695879597F908955F3FE1
:10159000ACF0983E9CF0BB27869577956795B795FC
:1015A00008F4B1609395C1F7BB0F58F711F460FFD1
:1015B000E8CF6F5F7F4F8F4F9F4FE3CF0C94F308BF
:1015C000FA01DC01AA0FBB1F9B01AC01BF5728F435
:1015D000222733274427507820C0B75190F4AB2FEF
:1015E0000024469537952795011CA395D2F300203A
:1015F00071F0220F331F441FB395DAF30ED00C9411
:10160000560761307105A0E88A07B94630F49B019E
:10161000AC016627772788279078309621F02083C1
:101620003183428353830895EF920F931F93CF9397
:10163000DF93E80147FD02C034E001C034E1042E2D
:10164000000C550B57FF03C0519541955109E32EEE
:10165000022F242FAE010E94590BCE01DF91CF91B2
:101660001F910F91EF900895BB274A3031F49923D1
:1016700022F4BDE2909581959F4F0C94400BBB27BF
:10168000FB015527AA27880F991FAA1FA41710F03E
:10169000A41B83955051B9F7A05DAA3308F0A95D4A
:1016A000A193009779F7B111B1931192CB010C94EA
:1016B0008B0DA9E0B0E0EFE5FBE00C94A10D6A0111
:1016C000122FB02E2BE3201720F0FF24F394F00EFE
:1016D00002C02CE3F22E0F2D27E0AE014F5F5F4FCB
:1016E0000E94B30CBC014981842F8970813031F094
:1016F000E1FC06C0E0FE06C090E205C09DE203C02A
:101700009BE201C090E05E2D507143FF3CC09111FF
:1017100002C083E001C084E0811718F4212F281B48
:1017200001C020E051110BC0F601822F30E2882366
:1017300019F031938150FBCFC20ED11C20E09923C8
:1017400029F0D6019C93F60131966F01C6010396EC
:10175000E2FE0AC03EE4D6013C9341E411964C936C
:10176000119712963C9306C03EE6F601308341E69F
:1017700041833283FC01322F40E2332309F442C01B
:1017800041933150FACF42FF44C0911102C083E02F
:1017900001C084E0811718F4212F281B01C020E02C
:1017A00051110BC0F601822F30E2882319F03193DA
:1017B0008150FBCFC20ED11C20E0992329F0D60125
:1017C0009C93F60131966F01C6010396E2FE0BC0B1
:1017D00039E4D6013C933EE411963C93119736E4EC
:1017E00012963C9307C039E6F60130833EE631831A
:1017F00036E63283FC01322F40E2332319F0419365
:101800003150FBCFFC01E20FF11D10828EEF9FEFF4
:10181000A6C021E030E0911102C020E030E01616B1
:1018200017061CF4FB01319602C0E1E0F0E02E0F38
:101830003F1FBB2021F0EB2DF0E0319602C0E0E02D
:10184000F0E02E0F3F1FE12FF0E02E173F071CF4B2
:10185000121B212F01C020E08E2D887159F4F60152
:10186000822F30E2882319F031938150FBCFC20ED2
:10187000D11C20E0992329F0D6019C93F6013196E2
:101880006F0151110BC0F601822F90E3882319F0EC
:1018900091938150FBCFC20ED11C20E00F2D060F7B
:1018A0009A81342F307144FF03C0913309F4015001
:1018B000101624F4093018F008E001C001E0AB0173
:1018C00077FF02C040E050E0FB01E41BF50BA1E014
:1018D000B0E0AC0FBD1FEA0FFB1F8EE2A82E4B013C
:1018E000801A91080B2D10E01195019511094F3FB9
:1018F000BFEF5B0721F4D601AC9211966D0164171E
:1019000075072CF08416950614F4818101C080E3DC
:10191000415051093196D60111967D01401751076A
:1019200024F0D6018C936701E2CF6417750739F470
:10193000963320F4953319F4311101C081E3F60197
:101940008083F701822F90E2882319F091938150D0
:10195000FBCFF701E20FF11D108280E090E02996A5
:10196000ECE00C94BD0D283008F027E03327DA01B5
:10197000990F311D87FD916000966105710539F45D
:1019800032602E5F3D9330E32A95E1F708959F3F43
:1019900030F080387105610509F03C5F3C5F3D9394
:1019A000913008F08068911DDF93CF931F930F93C0
:1019B000FF92EF92192F987F9695E92F969596951D
:1019C000E90FFF27E05DFE4F99273327EE24FF2420
:1019D000A701E70105900894079428F4360FE71E45
:1019E000F81E491F511D660F771F881F991F069407
:1019F000A1F70590079428F4E70EF81E491F561F1B
:101A0000C11D770F881F991F661F0694A1F70590C7
:101A1000079428F4F80E491F561FC71FD11D880FC1
:101A2000991F661F771F0694A1F70590079420F46D
:101A3000490F561FC71FD81F990F661F771F881F92
:101A40000694A9F784911095177041F0D695C79523
:101A500057954795F794E7941A95C1F7E6EDF0E0AE
:101A600068941590159135916591959105907FE257
:101A70007395E118F10A430B560BC90BD009C0F757
:101A8000E10CF11E431F561FC91FD01D7EF4703399
:101A900011F48A95E6CFE894015030F0080F0AF46B
:101AA0000027021708F4202F2395022F7A3328F0FD
:101AB00079E37D932A95E9F710C07D932A9589F6FD
:101AC000069497956795379517951794E118F10A3D
:101AD000430B560BC90BD00998F023957E91739553
:101AE0007A3308F070E37C932013B8F77E9170612D
:101AF0007D9330F0839571E37D9370E32A95E1F750
:101B00001124EF90FF900F911F91CF91DF919927B2
:101B100087FD90950895DC01FC01672F7191772373
:101B2000E1F7329704C07C916D9370836291AE1798
:101B3000BF07C8F308952F923F924F925F926F9222
:101B40007F928F929F92AF92BF92CF92DF92EF924D
:101B5000FF920F931F93CF93DF93CDB7DEB7CA1BCE
:101B6000DB0B0FB6F894DEBF0FBECDBF09942A88F9
:101B7000398848885F846E847D848C849B84AA84A1
:101B8000B984C884DF80EE80FD800C811B81AA812E
:101B9000B981CE0FD11D0FB6F894DEBF0FBECDBFF9
:081BA000ED010895F894FFCF58
:101BA8000000204141542B434D47533D222B3838E8
:101BB8003031373033383230353635220D00415424
:101BC8002B434D47463D310D004154442B383830A6
:101BD800313730333832303536353B0D0041540D0E
:101BE800003333134014AE073FF628DCBE333313FB
:101BF80040CDCC4C3E6666E6BE496E697469616C40
:101C0800697A696E672047534D0047534D20696EC6
:101C1800697469616C697A65640043616C6C696EAA
:101C2800670048616E67696E672075700043616C74
:101C38006C20656E6465640053656E64696E672028
:101C48006D657373616765004D65737361676520C2
:101C580073656E740043616C6962726174696E6762
:101C6800206761730073656E736F720043616C69FE
:101C780062726174696F6E20646F6E652E2E2E001D
:101C8800526F3D004B4F686D20004C50473A005052
:101C9800504D00534D4F4B453A0043726974696388
:101CA800616C206C6576656C20676173206465746F
:101CB800656374656400437269746963616C20616B
:101CC8006D6F756E742067617320646574656374E5
:101CD800656400202020202020202000666C616D93
:101CE800653A2000206E6D00666C616D6520646544
:101CF8007465637465640050495220616374697641
:101D0800650050495220696E616374697665004DBB
:101D18006F74696F6E206465746563746564004EE2
:0A1D28006F204D6F74696F6E0000AC
:00000001FF
